:100000007AC0000094C0000092C000000C947509F2
:100010000C9464098CC000008AC0000088C00000F5
:1000200086C0000084C0000082C000000C949910BB
:100030000C9478107CC000007AC0000078C00000EA
:1000400076C0000074C0000072C0000070C00000E4
:100050006EC000006CC000006AC0000068C00000F4
:1000600066C0000064C0000062C0000060C0000004
:100070005EC000005CC000005AC0000058C0000014
:1000800056C000000C9483100C948E1050C00000D9
:100090004EC000004CC000004AC0000048C0000034
:1000A0000C94710E44C0000042C0000040C000002B
:1000B0000C9486090664EC1B3C04BC163E3BE5B977
:1000C0003CC93C37C29E5A3D660498083EEA69AA7C
:1000D000AA3E000000803F05A84CCDB2D44EB938EE
:1000E00036A9020C50B9918688083CA6AAAA2ABE55
:1000F000000000803F0011241FBECFEFD8E0DEBF1C
:10010000CDBF12E0A0E0B1E0EAE0F6E702C0059062
:100110000D92A632B107D9F724E0A6E2B2E001C001
:100120001D92AD30B207E1F7CDD10C94033B0C9496
:10013000A4100C94500DFF920F931F93CF93DF9355
:1001400000D0CDB7DEB78C01F62E611110C06091E2
:100150003F0370914003809141039091420328EE48
:1001600033E040E050E00E947B39F8012083809129
:100170001101F80181838091100182838091130124
:10018000838360910C0170910D0180910E0190911B
:100190000F01CE0101960E94F7108981F801848336
:1001A0008A81858380911201868360910801709114
:1001B000090180910A0190910B01CE0101960E94E4
:1001C000F7108981F80187838A81808780911401E3
:1001D0008187809147028287809107018387809180
:1001E0004502848780914102858780910601868738
:1001F000809144028787FF2039F180913C029091E1
:100200003D0220913E0230913F02308B218B928B38
:10021000838B80913B02848B8091370290913802CE
:100220002091390230913A02358B268B978B808F43
:100230008091330290913402209135023091360240
:10024000318F228F938F848F0F900F90DF91CF91FA
:100250001F910F91FF900895CF93DF9300D0CDB7FA
:10026000DEB78091E902809311018091EA028093C8
:1002700010018091EB02809313018091EC0289833D
:100280008091ED028A83CE0101960E94F010A0E0D9
:10029000B0E080930C0190930D01A0930E01B093F8
:1002A0000F018091EE02809312018091EF02898309
:1002B0008091F0028A83CE0101960E94F010A0E0A6
:1002C000B0E08093080190930901A0930A01B093D4
:1002D0000B0181E09091F102911101C080E08093C7
:1002E000140181E09091F202911101C080E08093AD
:1002F00047028091F3028093070181E09091F4021C
:10030000911101C080E0809345028091F5028093B5
:1003100041028091F6028093060181E09091F702FC
:10032000911101C080E0809344026091F8027091C5
:10033000F9028091FA029091FB020E94B939609310
:100340003C0270933D0280933E0290933F02809165
:10035000FC0280933B026091FD027091FE0280914D
:10036000FF02909100030E94B939609337027093A5
:1003700038028093390290933A02609101037091A0
:10038000020380910303909104030E94B9396093A2
:1003900033027093340280933502909336020F90AB
:1003A0000F90DF91CF9108954EE150E068EE72E03A
:1003B00080E290E00E9413116DE170E088EE92E01F
:1003C0000E942A0D811105C081E09091EA029111ED
:1003D00080E090910503891741F020E044E064E655
:1003E00070E080E090E00C94730F36CF4F925F92F4
:1003F0006F927F928F929F92AF92BF92CF92EF9225
:10040000FF920F931F93CF93DF9367E074E0809187
:10041000D6029091D7020E94AF36429884E690E0CF
:100420000E94410F429A82E090E00E94410FE090CA
:100430003102F0903202C0913302D0913402109117
:100440003502009136028090370290903802A090D9
:100450003902B0903A02C0903B0240903C0250906A
:100460003D0260903E0270903F02809111010E9417
:100470009C0FEF92FF920F931F93DF93CF93830113
:10048000720123EA32E0482F67E074E08091D602DF
:100490009091D7020E94DE350F900F900F900F9031
:1004A0000F900F90DF91CF911F910F91FF90EF90E0
:1004B000CF90BF90AF909F908F907F906F905F9004
:1004C0004F900895CF93DF9300D000D01F92CDB707
:1004D000DEB72FDE0E946111429A389840980E9440
:1004E000FB1083B18095881F8827881F8093430263
:1004F00082E090E00E94FE10813039F18091430249
:100500002FD79A83898390935A0280935902019638
:1005100051F581E090E00E94FE1090E090935A0225
:100520008093590209978037910530F089819A812B
:1005300090935A028093590220E044E064EF71E006
:1005400080E090E00E94730F0EC081E090E00E9476
:10055000FE1090E090935A028093590260E082E08E
:1005600090E00E9405118091590290915A0218164C
:1005700019063CF020E04FEF64EF71E080E090E07E
:1005800014C09C01285031092137310540F40E94E4
:10059000670E6091590281E00E944C0F08C020E074
:1005A0004FEF64E670E080E090E00E94730F789473
:1005B0002698399A419A80916800816080936800FA
:1005C00080916B00806480936B003B984398389ACD
:1005D0008091680082608093680080916C008860E0
:1005E00080936C004EE150E068EE72E080E690E0AF
:1005F0000E9413116DE170E088EE92E00E942A0DD6
:10060000811105C081E09091EA02911180E0909102
:100610000503891711F0C8DE01C01EDE40E150E07D
:1006200068ED72E080E091E00E94131149E050E033
:1006300068EE72E080E291E00E94131189E0E8EE3A
:10064000F2E0A6EBB2E001900D928A95E1F786E325
:1006500093E09093D7028093D6028091100146EBED
:1006600052E063EA72E00E94A20FE0903102F09043
:100670003202909133029983A0913402AD8310919C
:100680003502009136028090370290903802A09097
:100690003902B0903A02C0903B0240903C02509028
:1006A0003D0260903E0270903F02809111010E94D5
:1006B0009C0FEF92FF920F931F93BD81BF932981EF
:1006C0002F938301720123EA32E0482F67E074E040
:1006D0008091D6029091D7020E94DE350F900F9044
:1006E0000F900F900F900F90811108C021E04FEFF5
:1006F00065E070E080E090E00E94730F6091070178
:1007000070E042E050E089ED93E00E94920D60912C
:100710003F0370914003809141039091420328EE82
:10072000C22E23E0D22EE12CF12CA70196010E94CB
:100730007B39C701B6010E947B39CA01B90146E085
:100740008BE592E09AD710922B022091060188EE59
:1007500093E0289F2001299F500C1124052C000CA8
:100760006608770880911201803711F40E947F118A
:1007700080911301803711F40E94A511809111011D
:10078000833611F40E94CB113B98439A67E074E0E2
:100790008091D6029091D7020E94803588EE282E53
:1007A00083E0382E809128028111FCCF0E946E11C7
:1007B0008091D502882309F4D0C29091C002809123
:1007C0000804911125C18E3241F4269A2E9A88ECA4
:1007D00090E00E94410F2698BEC2883621F44298CC
:1007E00010924402B8C2883409F04CC0429A82E0A8
:1007F00090E00E94410FF090310200913202D090BF
:100800003302E0903402809135028D8310913602DC
:100810008090370290903802A0903902B0903A024E
:10082000C0903B0280913C0290913D02A0913E021B
:10083000B0913F0289839A83AB83BC83809111017D
:100840000E949C0FFF920F931F939D819F93EF92A5
:10085000DF92E980FA800B811C8123EA32E0482F85
:1008600067E074E08091D6029091D7020E94DE3555
:10087000A1E0A09344020F900F900F900F900F9063
:100880000F9069C2883589F1873761F561E088EE9C
:1008900092E051DC6DE170E088EE92E00E942A0D5A
:1008A00080930503809146024EE150E068EE72E0CD
:1008B000811113C080E690E00E94361140E150E0C3
:1008C00068ED72E080E091E00E94361149E050E06E
:1008D00066EB72E080E291E002C080E290E00E946C
:1008E000361139C28A3719F45FDD80DD34C28435B0
:1008F00029F4B1E0B093450283E736C1843741F46F
:100900001092450280911101833609F024C22AC158
:100910008537E1F421E02093280283E70E949C0FB1
:10092000482F67E074E08091D6029091D7020E9430
:10093000C0352BE332E04CE352E067E074E0809195
:10094000D6029091D7020E9452351DC0853501F51F
:1009500081E08093280283E70E949C0F482F67E084
:1009600074E08091D6029091D7020E94C03521E3B5
:1009700032E042E352E067E074E08091D602909169
:10098000D7020E94763520E0813009F08BC184C106
:10099000863421F491E090931401DDC1863619F478
:1009A00010921401D8C1863569F46091070170E096
:1009B00042E050E089ED93E00E94920DA1E0A09307
:1009C0004702C9C1863719F410924702C4C1833661
:1009D00039F480931101809145028111BCC1C2C0DC
:1009E000833719F480931101BDC0833509F0B3C179
:1009F00080911101833709F0AEC142EC52E067E00B
:100A000074E08091D6029091D7020E948A35A3C1EA
:100A1000913009F0B5C08130D1F480912603811165
:100A20009AC16091590281E00E944C0F61E082E01E
:100A300090E00E940511F89498E088E10FB6F894D0
:100A4000A895809360000FBE90936000FFCF813720
:100A500029F480912603809306017DC1813529F414
:100A6000809126038093410276C1893651F48091AA
:100A700026039EEF980F9B3008F06DC1809307010D
:100A80006AC18C36C9F40E94C711809126038093F5
:100A90001301739A809113018F3609F47398809132
:100AA0001301863609F4739A80911301803709F097
:100AB00052C10E94A5114FC18736C9F40E94A111ED
:100AC00080912603809312014098809112018F3605
:100AD00009F4409A80911201863609F44098809179
:100AE0001201803709F037C10E947F1134C18D3661
:100AF00009F031C1809126038093100167E074E012
:100B00008091D6029091D7020E94AF368091100159
:100B100046EB52E063EA72E00E94A20F43EA52E021
:100B200067E074E08091D6029091D7020E9411355F
:100B300060913F0370914003809141039091420383
:100B400028EE33E040E050E00E947B3968EE73E02D
:100B500080E090E00E947B39CA01B90146E08BE554
:100B600092E08BD5809111010E949C0F482F67E085
:100B700074E08091D6029091D7020E94C035EBC0FC
:100B8000923009F0A6C08F3679F486E293E00E9495
:100B9000F010A0E0B0E08093080190930901A093C9
:100BA0000A01B0930B01D7C0853679F486E293E051
:100BB0000E94F010A0E0B0E080930C0190930D0132
:100BC000A0930E01B0930F01C6C0813609F040C05A
:100BD000B1E0B093280283E70E949C0F482F67E0A2
:100BE00074E08091D6029091D7020E94C0352BE329
:100BF00032E04CE352E067E074E08091D6029091DD
:100C0000D7020E945235811121C021E332E042E334
:100C100052E067E074E08091D6029091D7020E9482
:100C20007635811113C086E293E00E94F01027E32D
:100C300032E0AC0167E074E08091D6029091D70277
:100C40000E945C35811102C020E02CC020E024C04D
:100C5000883709F080C021E02093280283E70E94B2
:100C60009C0F482F67E074E08091D6029091D702E4
:100C70000E94C03586E293E00E94F01023E332E048
:100C8000AC0167E074E08091D6029091D7020E9497
:100C9000693520E0882331F044E064EF71E080E0C2
:100CA00090E005C041E068EC70E080E090E00E94D8
:100CB000730F809111010E949C0F482F67E074E030
:100CC0008091D6029091D7020E94C03510922802DE
:100CD00042C0963049F58332F1F580912603813286
:100CE000D1F5809127038332B1F5809128038132B9
:100CF00091F580912903833271F580912A03813225
:100D000051F580912B03833231F58091460291E0B9
:100D1000892780934602809146028823E1F00E9451
:100D2000A5111092300217C0993041F48B3699F416
:100D300089E0E6E2F3E0A6EBB2E009C0903159F4B5
:100D40008E3649F480E1E6E2F3E0A8EDB2E00190EE
:100D50000D928A95E1F71092D50280914502882381
:100D6000D9F0809129028823B9F01092290280914C
:100D70000601829D2001839D500C1124052C000C3E
:100D80006608770842EC52E067E074E08091D60292
:100D90009091D7020E948A3580912902811120C04A
:100DA000809143028823E1F0809145028823C1F0BD
:100DB000A1E04A1A510861087108141415041604B8
:100DC000170474F0B1E0B093290280910601829D6E
:100DD0002001839D500C1124052C000C6608770817
:100DE00080912B02882309F4B6C1809111018336CA
:100DF00011F40E94D81110922B02809145028111AA
:100E00004198809113018D3629F480914602811119
:100E100001C07398809112018D3629F480914602A9
:100E2000811101C0409A42EC52E067E074E0809189
:100E3000D6029091D7020E94B1368091D40280935D
:100E40005002843049F08091C2029091C302909385
:100E50004D0280934C0204C010924D0210924C023D
:100E60008091CE029091CF02A091D002B091D10298
:100E7000B0934F02A0934E028091C6029091C70298
:100E8000A091C802B091C902B0934B02A0934A024C
:100E90008091CA029091CB02A091CC02B091CD0278
:100EA000B0934902A093480280914C0290914D0268
:100EB000803A9F4020F010924D0210924C02809197
:100EC0004C0290914D0201974E9730F48EE190E0E4
:100ED00090934D0280934C0280914C0290914D0270
:100EE0009093520280935102909354028093530244
:100EF00063E572E089ED93E043D6809153029091CF
:100F00005402009709F453C020911401222361F187
:100F10006BE572E0E7D49093540280935302809182
:100F20002C02882359F020915102309152023093C3
:100F3000540220935302815080932C0280915302DB
:100F400090915402813A9F4078F080912C02811157
:100F50000BC0809151029091520290935402809361
:100F60005302B8E0B0932C02809147028823F9F035
:100F70009091420280910701981770F4809151027C
:100F800090915202909354028093530280914202B6
:100F90008F5F809342020BC0609107018091D9035B
:100FA0009091DA038DD7909354028093530221E0FD
:100FB00020934002809146028111E1C0809113018B
:100FC0008437C9F4809153029091540240910C01EE
:100FD00050910D0160910E0170910F018C0120E084
:100FE00030E0401751076207730720F0892B11F09A
:100FF000739801C0739A809112018437C9F480916B
:10100000530290915402409108015091090160915E
:101010000A0170910B018C0120E030E0401751076C
:101020006207730720F0892B11F0409A01C04098A5
:10103000809113018D3609F4739A809112018D36D7
:1010400009F44098809145028111419A8091D4021F
:101050008350823008F472C0009153021091540200
:101060006801E12CF12C80910C0190910D01A0916F
:101070000E01B0910F018C159D05AE05BF0518F44A
:101080001092270227C001151105D1F380910C01A0
:1010900090910D01A0910E01B0910F0180900C0173
:1010A00090900D01A0900E01B0900F019C01AD0138
:1010B0002C193D094E095F09A4E6B0E00E94CF3922
:1010C000A50194012E513109410951090E947B3932
:1010D000209327028091080190910901A0910A01B3
:1010E000B0910B018C159D05AE05BF0548F1012B94
:1010F00039F18091080190910901A0910A01B09104
:101100000B018090080190900901A0900A01B09015
:101110000B019C01AD012C193D094E095F09A4E6A4
:10112000B0E00E94CF39A50194012E513109410947
:1011300051090E947B392093260204C01092270295
:1011400010922602809127020E94BE1180912602F1
:101150000E94981114C080914502811110C08091A5
:101160002A02882361F010922A023B98439A67E092
:1011700074E08091D6029091D7020E9480358091D0
:101180004602882309F40ECB80912D0290912E0205
:1011900001968D30910528F490932E0280932D02B4
:1011A00004C010922E0210922D0280912D02909177
:1011B0002E02892B09F0F6CA90912F0280913002FD
:1011C000992311F0815001C08F5F8093300280918C
:1011D000300284363CF083E68093300291E09093B5
:1011E0002F0206C087FF04C01092300210922F0217
:1011F000809130020E94BE11D5CACF93C42F91E0D6
:101200009093D5028093080450E086E293E00E9418
:10121000FA3AC093C002CF910895282FCB0122370C
:1012200041F46091530270915402E1D71092400250
:101230003BC0223529F460914E0270914F0233C0B9
:10124000253419F42091500204C0293431F420913E
:101250004002FC01208381E00895243649F420E116
:10126000E8EDF2E0DB0101900D922A95E1F705C06F
:10127000223629F460E00E949B0080E108952A361E
:1012800029F460915102709152020DC0213429F469
:10129000609148027091490206C02A3439F4609185
:1012A0004A0270914B02A3D782E008952E3451F484
:1012B0002AE0EAE1F2E0DB0101900D922A95E1F7E4
:1012C0008AE0089580E008951F920F920FB60F9262
:1012D00011248F93339903C081E080932B028F9167
:1012E0000F900FBE0F901F9018951F920F920FB680
:1012F0000F9211248F931E9903C081E080932902DD
:101300008F910F900FBE0F901F9018951F920F9204
:101310000FB60F9211248F9381E080932A028F9150
:101320000F900FBE0F901F9018954AD04CD0882375
:10133000A9F0809115018F5FA5D0BAD090E02091DF
:101340001501309116012F5F3F4F8217930721F44B
:1013500081E098D081E008958EEF94D080E00895E8
:101360008823A1F088E090E0909316018093150106
:10137000DCDF811120C02FEF83EC99E02150804009
:101380009040E1F700C00000D0DF15C0A6D0F8D033
:10139000882389F05DD1282F30E030931601209307
:1013A000150140D155D1813019F38FEF9FEF909304
:1013B00016018093150180911501909116010895F1
:1013C000399841980895F894399840E251EA67E0D5
:1013D00070E085E08A95F1F7000096B1892F827060
:1013E00091FD06C0415051096109710991F71BC077
:1013F000399A4198EFEBF3E03197F1F700C0000024
:1014000039983998419AFAEBFA95F1F700C086B10C
:101410008695817091E08927E3E3F3E03197F1F756
:1014200000C0000078940895F894399A419880FF9C
:1014300008C080E18A95F1F739988AEA8A95F1F730
:1014400009C080EA8A95F1F739983998419A8AE17A
:101450008A95F1F700C078940895F894399A4198E4
:1014600080E18A95F1F739983998419A98E19A95EF
:10147000F1F786B192E99A95F1F700C078948695D4
:10148000817008950F931F93CF93DF93082FC8E0C7
:10149000D0E011E081E0902F912309F480E0C4DFD7
:1014A000110F2197B9F7DF91CF911F910F910895F7
:1014B0000F931F93CF93DF9308E010E0C0E0D1E0DB
:1014C000CCDF8111CD2BDD0F01501109C9F78C2F15
:1014D000DF91CF911F910F91089526982E9808952E
:1014E000269823B126FB222720F9462F572FBC012F
:1014F00093B181E0392F307496FF80E0281791F086
:10150000411551056105710519F4789480E008953D
:10151000311106C04150510961097109282FE8CFE6
:1015200081E00895411551056105710599F7EDCFE9
:10153000269823B126FB222720F9462F572FBC01DE
:1015400093B181E0392F307496FF80E0281791F035
:10155000411551056105710519F4789480E00895ED
:10156000332331F04150510961097109282FE8CF27
:1015700081E00895411551056105710599F7EDCF99
:10158000F894269826982E9A60E271EA87E090E017
:10159000A7DF882379F085E58A95F1F70000269A80
:1015A0002E9887E191E00197F1F700C0000026989E
:1015B00026982E9A789481E00895CF93C82FF894B6
:1015C000269826982E9A60E970ED83E090E0B0DFCF
:1015D000882371F0C0FF04C088E78A95F1F708C03E
:1015E000269A2E9888E78A95F1F7269826982E9ABB
:1015F000789481E0CF910895F894269826982E9AB1
:1016000060E970ED83E090E093DF882341F088E7A4
:101610008A95F1F783B186FB882780F901C080E0C5
:10162000789408950F931F93CF93DF93082FC8E00A
:10163000D0E011E081E0902F912309F480E0BDDF3C
:10164000110F2197B9F7DF91CF911F910F91089555
:101650000F931F93CF93DF9308E010E0C0E0D1E039
:10166000CBDF8111CD2BDD0F01501109C9F78C2F74
:10167000DF91CF911F910F9108952F923F924F923A
:101680005F926F927F928F929F92AF92BF92CF9212
:10169000DF92EF92FF920F931F93CF93DF93CDB71B
:1016A000DEB760970FB6F894DEBF0FBECDBF8C01DA
:1016B0007E836D8382E090E0D8018D939C93642FAC
:1016C00070E080E090E00E94BD37F8016683778388
:1016D000808791872BED3FE049E450E40E944B382E
:1016E0006B017C012D813E81B90180E090E00E9478
:1016F000BD379B01AC01C701B6010E9429370E948A
:10170000B4384B015C01D8011A966D937D938D938B
:101710009C931D979B01AC010E944B386B017C018F
:10172000F80166877787808B918BA5019401C501AD
:10173000B4010E94C5366F83788789879A87A7018D
:10174000960160E070E080E89FE30E94C4369B0150
:10175000AC010E94C5366B877C878D879E87188B6E
:101760000F87212C312CB101032C000C880B990B15
:101770000E94BF379B01AC010E94C53620E030E0DB
:1017800040E85FE30E94C5362BED3FE049E450E4BA
:101790000E944B3820E030E040E05EE30E944B388E
:1017A0000E94AE3869837A838B839C832F8138852E
:1017B00049855A850E944B382B013C019B01AC01A5
:1017C000C701B6010E94C53620E030E040E85FE383
:1017D0000E94C5364B015C019B01AC01C701B601FB
:1017E0000E942937AF85B88956966D937D938D9366
:1017F0009C935997A50194016B857C858D859E8569
:101800000E942937EF85F889668F778F80A391A38F
:10181000A3019201C701B6010E94C43620E030E066
:1018200040E85FE30E94C5369058A50194010E94EC
:101830002937AF85B88996966D937D938D939C9348
:101840009997FD0116A617A610AA11AAD6961D9261
:101850001D921D921C92D997FE96108211821282BF
:101860001382BFEF2B1A3B0AEF85F8893496F88B69
:10187000EF87F2E02F16310409F075CF89819A8144
:10188000AB81BC81F801828B938BA48BB58B828258
:101890009382A482B582EA5BFF4F2D813E812C307A
:1018A000310518F41182108204C081E090E0918328
:1018B000808360960FB6F894DEBF0FBECDBFDF9178
:1018C000CF911F910F91FF90EF90DF90CF90BF903D
:1018D000AF909F908F907F906F905F904F903F90D0
:1018E0002F9008952F923F924F925F926F927F9226
:1018F0008F929F92AF92BF92CF92DF92EF92FF9220
:101900000F931F93CF93DF9300D000D000D0CDB7BB
:10191000DEB77E836D83BC0180E090E00E94BD371E
:101920006B017C01ED81FE81EA5BFF4F808191813B
:10193000892B09F471C0AD81BE812D903C9000E0EF
:1019400010E08D819E8104969E838D830215130580
:101950000CF062C0ED81FE8142A853A864A875A86E
:1019600082AD93ADA4ADB5AD89839A83AB83BC83BF
:10197000228D338D448D558DC301B2010E944B38A9
:101980004B015C01ED81FE8122A133A144A155A14F
:1019900069817A818B819C810E944B389B01AC01CB
:1019A000C501B4010E94C536A70196010E94C53643
:1019B0004B015C01AD81BE819A966D937D938D93B1
:1019C0009C939D97A3019201C301B2010E94C53669
:1019D000A50194010E94C53629813A814B815C8121
:1019E0000E94C536ED81FE8122893389448955895B
:1019F0000E944B386B017C01AD81BE81DA964D921D
:101A00005D926D927C92DD97FD0182AA93AAA4AAB1
:101A1000B5AA0F5F1F4F95CFC701B6010E9491373E
:101A2000CB0126960FB6F894DEBF0FBECDBFDF9177
:101A3000CF911F910F91FF90EF90DF90CF90BF90CB
:101A4000AF909F908F907F906F905F904F903F905E
:101A50002F900895680F791F20E030E086179707D0
:101A600089F0FC014191CF01342748E050E037FF75
:101A700003C02058F3E83F27220F331F415051097C
:101A8000B1F7ECCF832F08953D9A459845983C9A3D
:101A90004498449896C469987198689870989FC4BF
:101AA0008DE3809365008FEF8093640094B114B848
:101AB00095B185B997B1907897B998B19F6798B962
:101AC0009AB11AB89BB18BB98DB1807F8DB98EB1A7
:101AD0008F608EB926982E98279827982F9A389835
:101AE0004098399841983A9A42983B983B98439A43
:101AF00053985B9855985D986B9A739A40E060E8AC
:101B000081E690E0D7D313BE15BE78D4BDDFC3DF26
:101B10005498529850986A985698579820982198B7
:101B200022980895CF92DF92EF92FF920F931F9326
:101B3000CF93DF93EC016B017A01649F8001659F75
:101B4000100D749F100D1124C8010E94D93999837A
:101B50008883080F191F1B830A83DD82CC821F82B2
:101B60001E82F986E8869B878A879D878C87DF910E
:101B7000CF911F910F91FF90EF90DF90CF9008953C
:101B8000CF93DF93EC018E819F812C813D8148852D
:101B900059858217930791F42C853D85240F351FB5
:101BA0003D872C87EA81FB812E173F0721F428818E
:101BB00039813D872C8701979F838E838A859B85FA
:101BC0000E94FA3A2A853B8588859985820F931F62
:101BD0009B878A872A813B818217930721F488811A
:101BE00099819B878A878E819F8101969F838E83AF
:101BF000DF91CF910895E5C31092BC0094EA9093D1
:101C0000BC009091BC0097FFFCCF9091B900987FE9
:101C1000983011F081E008958093BB0084E88093B0
:101C2000BC0081EA96E8A1E0B0E02091BC0027FD6D
:101C300004C00197A109B109C1F78091B900887F5B
:101C4000883111F0803431F780E008958093BB0033
:101C500084E88093BC0081EA96E8A1E0B0E020919E
:101C6000BC0027FD04C00197A109B109C1F79091FB
:101C7000B900987F81E0983209F480E0089584ECFF
:101C80008093BC0081EA96E8A1E0B0E02091BC001E
:101C900027FD04C00197A109B109C1F78091BB00DC
:101CA000089584E88093BC0081EA96E8A1E0B0E062
:101CB0002091BC0027FD04C00197A109B109C1F71B
:101CC0008091BB00089584E98093BC0008959FEF44
:101CD0009093BF02880F8093DA0085EC8093DC003C
:101CE00008951F920F920FB60F9211242F933F93D6
:101CF0004F935F936F937F938F939F93AF93BF9314
:101D0000EF93FF938091D900887F883909F4A0C0B0
:101D1000F0F4803709F4A1C088F4882309F498C04E
:101D2000803609F09AC08FEF8093BF02109258025C
:101D30001092C10281E0809357028FC0883809F465
:101D400087C08039B1F0803809F087C012C0883B65
:101D500009F468C038F4803A09F47FC0883A09F47D
:101D600041C07BC0883C09F473C0883F09F075C04E
:101D70006FC08091DB002091BF022F3F31F4809330
:101D8000BF0215D2811169C01DC09091C102E92F17
:101D9000F0E0E951FC4F80839F5F9093C1028091F6
:101DA0005602981778F080915602981307C0409118
:101DB000560267EE73E0822F20DA04C08091DC00C7
:101DC00085684CC08091BF02CAD180935602809131
:101DD0005602811142C040E067EE73E08091BF027D
:101DE0000CDA3BC08091BF02E2D1882321F08091C0
:101DF0005702811103C082E78093BF0266E073E05F
:101E00008091BF020ADA80935502109257028091A6
:101E100006038093DB0081E0809358028091DC0010
:101E2000856C1CC0E091580280915502E81760F45F
:101E3000F0E0EA5FFC4F80818093DB0080915802E4
:101E40008F5F8093580209C08FEF8093DB0005C03D
:101E50008091DC008B7B8093DC0085EC8093DC0040
:101E6000FF91EF91BF91AF919F918F917F916F9172
:101E70005F914F913F912F910F900FBE0F901F9048
:101E80001895009741F0EFECF7E03197F1F700C0BB
:101E900000000197F6CF08951F93CF93DF93162F7D
:101EA000C82FD0E0CE01AAD1811731F0612FCE0129
:101EB000DF91CF911F91A9C1DF91CF911F9108951B
:101EC000FC0190E020E030E0961731F04191519113
:101ED000240F351F9F5FF8CF692F70E0C9010E9462
:101EE0006739CB0108950F931F93CF93DF93C42FCE
:101EF000D22F739A8B01CB01C4DFDD23B1F0CF3F2A
:101F0000A1F423D2C0E0C33608F0C0E08C2F36D253
:101F1000C801B7DFCF5FF7CFC801B3DF7398C8013F
:101F2000B0DF739A1C160CF4C150C111F5CFDF91CC
:101F3000CF911F910F91089591E0833609F090E0C1
:101F4000892F08950F931F93CF93DF93EB018A019D
:101F5000833609F047C0FA013896E017F10709F413
:101F60009CC0319781818823C1F3F8018081817001
:101F7000888381819281982789279827A0E0B0E003
:101F800089839A83AB83BC836381862F90E0A0E032
:101F9000B0E07727662724E630E040E050E00E947A
:101FA0007B392D833E834F835887F801848190E0ED
:101FB000A0E0B0E0DC019927882789879A87AB8762
:101FC000BC8725813681322723273227A8EEB3E04C
:101FD0000E94C0396D877E878F87988B8781898B18
:101FE000808580C08836D1F4188219821A821B82BB
:101FF0001C8280E090E4A0E0B0E08D839E83AF83FC
:10200000B88780E090E0A2E1B0E089879A87AB874B
:10201000BC8780E49DE0A3E0B0E05DC08C3609F5AC
:10202000188219821A821B821C8289E999E1A0E038
:10203000B0E08D839E83AF83B88780E090E0ACE30F
:10204000B0E089879A87AB87BC8788EE90E8A0E0EC
:10205000B0E08D879E87AF87B88B82E1898B8EE059
:1020600041C08337D1F4188219821A821B821C82E4
:1020700080E090E4A0E0B0E08D839E83AF83B887DA
:1020800080E090E0A0E2B0E089879A87AB87BC87C8
:1020900080E694E5A0E0B0E01EC081E0888384ED96
:1020A00098E0A0E0B0E089839A83AB83BC8380E0B2
:1020B00090E4A0E0B0E08D839E83AF83B88780E09A
:1020C00090E0A2E1B0E089879A87AB87BC8788EE71
:1020D00090E8A0E0B0E08D879E87AF87B88B8EE058
:1020E000898B8AE08A8BDF91CF911F910F910895A0
:1020F0001F920F920FB60F92112440980F900FBEAF
:102100000F901F9018951F920F920FB60F921124E7
:1021100073980F900FBE0F901F9018951F920F92FB
:102120000FB60F921124739A0F900FBE0F901F904D
:1021300018951F920F920FB60F921124409A0F908C
:102140000FBE0F901F9018951F920F920FB60F920F
:10215000112400000F900FBE0F901F901895893624
:1021600011F194E9980F9230F0F08536B1F087368E
:10217000D1F08F3691F0813681F0883771F0982F49
:102180009F7D913581F08E3651F0833251F0813050
:1021900051F08B3651F080E0089582E0089580E19F
:1021A000089586E0089581E0089589E00895982FC4
:1021B0009F7D923599F0843689F0982F977F9236DB
:1021C00069F097EB980F923048F08E3439F0982FE1
:1021D0009B7F81E0913419F080E0089581E00895BB
:1021E000FC01808191819827892798270895FC0117
:1021F0007083618308951FBA80E00895F999FECF36
:1022000092BD81BDF89A80B50895F999FECF92BD2F
:1022100081BD60BD0FB6F8940F92FA9AF99A0F90AB
:102220000FBE80E00895CF92DF92EF92FF920F935E
:102230001F93CF93DF938B017A01EB016C01C61AD8
:10224000D70AC6018C0F9D1F2C2F201B30E02E15A6
:102250003F0518F4D3DF8993F4CFDF91CF911F911D
:102260000F91FF90EF90DF90CF900895CF92DF9283
:10227000EF92FF920F931F93CF93DF938B017A011D
:10228000EB016C01C61AD70AC6018C0F9D1F2C2FBB
:10229000201B30E02E153F0518F46991B6DFF4CF0E
:1022A00080E0DF91CF911F910F91FF90EF90DF9031
:1022B000CF9008952FB7F894FC01608340832FBF1F
:1022C0000895EAE7F0E080818F77808380E880BF1F
:1022D000EEE7F0E080818F638083089583B7817F8C
:1022E00083BF83B7816083BF83B7816083BF8895D5
:1022F00083B78E7F83BF83B78E7F83BF0895E4E665
:10230000F0E08081877F80838BE08093810083E68B
:1023100090E0909389008093880080E490E090930F
:102320008B0080938A0086E080936F0080E00895A0
:10233000833608F082E690E090938B0080938A00C9
:10234000089588E0809381000895E5E6F0E08081BB
:102350008E7F80838BE08093910083E690E0909362
:1023600099008093980080E490E090939B00809384
:102370009A0086E08093710080E00895833608F02B
:1023800082E690E090939B0080939A00089588E005
:10239000809391000895E5E6F0E08081877F808357
:1023A00083E08093A10081E08093720080E0089533
:1023B0001092A5001092A400089588E08093A100D7
:1023C0000895E4E6F0E080818F77808384E0809355
:1023D000BC0082E08093B8001092B9000895E5E651
:1023E000F0E080818F7D808385E48093DC008FE046
:1023F0008093DA001092DD0080E0089584B7877F33
:1024000084BF41E268E180E690E054DF80E0089517
:102410000C94F21C633041F018F4623028F008C0CC
:102420002CEE260F223020F4FC01608780E0089516
:1024300088EF08950C94DE290C9489280C94B8290F
:10244000DF92EF92FF920F931F93CF93DF931F9230
:10245000CDB7DEB77C01162FD42E1982AE014F5FA7
:102460005F4F61E00E94DE34082F81114FC08981E7
:1024700091E0D9121AC0123091F038F4112361F0B2
:10248000113069F5182F18622CC0133059F0143030
:1024900031F5182F106825C0182F106122C0182F91
:1024A00014601FC0182F10641CC0123091F038F453
:1024B000112361F0113099F4182F177D12C01330D9
:1024C00059F0143061F4182F1F770BC0182F1F7E9E
:1024D00008C0182F1B7F05C0182F1F7B02C00CEFF0
:1024E00015C0811799F0412F61E0C7010E948F3418
:1024F000082F81110BC0F701E158FF4F1083F7013E
:102500004185528563857485C70194DF802F0F90C4
:10251000DF91CF911F910F91FF90EF90DF90089581
:10252000F9016230A1F028F4662351F0613059F0CE
:1025300004C0633081F0643091F010828CEF089514
:10254000429541700FC043FB442740F90BC042FB4A
:10255000442740F907C046FB442740F903C0441F05
:102560004427441F408380E00895CF92DF92FF927A
:102570000F931F93CF93DF931F92CDB7DEB78C01DC
:10258000F62E6A011982AE014F5F5F4F61E00E9433
:10259000DE34811105C0960149816F2DC801C0DF6D
:1025A0000F90DF91CF911F910F91FF90DF90CF900F
:1025B00008950F931F93CF93DF931F92CDB7DEB78C
:1025C0008B011982AE014F5F5F4F61E00E94DE34E4
:1025D000811116C0998194FB222720F9F8012083EC
:1025E00093FB222720F9228392FB222720F92183C3
:1025F00096FB222720F92383991F9927991F9483FB
:102600000F90DF91CF911F910F910895CF92DF929C
:10261000EF92FF920F931F93CF93DF9300D0CDB72C
:10262000DEB78C016A017B01AE014F5F5F4F68EF3F
:102630000E94E934811117C0A981BA8196011097CF
:1026400029F0A7010E94CF399B0101C0C701AC014D
:1026500064E0C8010E94A534811105C0F801C58657
:10266000D686E786F08A0F900F90DF91CF911F9169
:102670000F91FF90EF90DF90CF900895CF92DF926F
:10268000EF92FF921F93CF93DF9300D000D000D042
:10269000CDB7DEB77C016B01AE014B5F5F4F68EFDA
:1026A0000E94E934182F811126C0AE014F5F5F4FA1
:1026B00064E0C7010E94F434182F81111CC02D81E1
:1026C0003E812115310569F040E050E069817A8151
:1026D0008B819C810E947B39F60120833183428368
:1026E0005383F60180819181A281B381F7018587AF
:1026F0009687A787B08B812F26960FB6F894DEBFFA
:102700000FBECDBFDF91CF911F91FF90EF90DF9073
:10271000CF9008951F93CF93DF93EC01162F66237C
:1027200069F0FC01E656FF4F80819181883E93401D
:1027300029F44C895D896E897F8903C040E050E0AF
:10274000BA0183E076956795579547958A95D1F7B5
:1027500060E2CE010E949A34811106C0111102C0BC
:10276000198A02C091E0998BDF91CF911F91089552
:10277000FC018189FB01808380E00895CF92DF9284
:10278000EF92FF92CF93DF93FC012189211106C0C4
:10279000448B558B668B778B80E022C0FC01E6561C
:1027A000FF4F20813181283E334059F46A017B017B
:1027B00023E0F694E794D794C7942A95D1F796012D
:1027C00002C020E030E06A017B01EC01A90160E277
:1027D0000E949A34811104C0CC8ADD8AEE8AFF8A75
:1027E000DF91CF91FF90EF90DF90CF900895EF921F
:1027F000FF920F931F93CF93DF9300D0CDB7DEB737
:102800008C017B01AE014F5F5F4F60E20E94E934B3
:10281000811127C049815A814115510569F4F80198
:102820004489558966897789F7014083518362839A
:102830007383F801118A15C060E070E093E0440FE3
:10284000551F661F771F9A95D1F7F7014083518373
:1028500062837383F801448B558B668B778B91E091
:10286000918B0F900F90DF91CF911F910F91FF905F
:10287000EF900895FF920F931F93CF93DF93EB0197
:10288000F42E6630710588F4442389F0FB013A96F2
:10289000EE0FFF1FEE0FFF1FE80FF91F4081518160
:1028A0006281738120E031E007C08CEF43C021E0FA
:1028B00030E040E050E0BA018C01C330D10519F49A
:1028C000F801378F2EC0C430D10578F4C130D1055E
:1028D000C1F489E076956795579547958A95D1F724
:1028E00064E4C8010E949A3409C0C430D10591F44F
:1028F000220F4EEF60E6C8010E94B03481111AC069
:1029000010C0C230D10519F0F801348F0AC0F801A7
:10291000368F07C0C530D105B9F72295207F4FEE1D
:10292000E9CFC00FD11FF11002C01C8E02C081E0A0
:102930008C8F80E0DF91CF911F910F91FF900895D0
:102940006630710520F0FA0110828CEF0895FC01C9
:10295000E60FF71F848DFA01808380E00895CF92FF
:10296000DF92EF92FF920F931F93CF93DF938C012F
:10297000EB0169017A01FC01E60FF71F848D8111DB
:102980000DC02A96CC0FDD1FCC0FDD1FC00FD11F4D
:10299000C882D982EA82FB8280E03EC06230710543
:1029A00041F180F42097F9F061307105A1F5BA0189
:1029B000A90199E076956795579547959A95D1F72E
:1029C00064E423C063307105D1F06630710518F5F9
:1029D000BA01A90189E076956795579547958A953B
:1029E000D1F764E612C0F80120A731A742A753A788
:1029F000C8CFF80120AB31AB42AB53ABC2CFF8012B
:102A000024AB35AB46AB57ABBCCFC8010E949A3460
:102A1000811102C0B6CF8CEFDF91CF911F910F9142
:102A2000FF90EF90DF90CF900895EF92FF920F9379
:102A30001F93CF93DF9300D0CDB7DEB78C017A011F
:102A400062307105D1F138F46115710559F06130CA
:102A5000710571F05FC063307105A9F166307105D1
:102A6000C0F158C0FC0180A591A5A2A5B3A554C092
:102A7000AE014F5F5F4F64E40E94E934811152C0A0
:102A800049815A8160E070E039E0440F551F661FAC
:102A9000771F3A95D1F7411551056105710569F523
:102AA000F80144A555A566A577A5F7014083518394
:102AB00062837383F801158E35C0FC0180A991A94A
:102AC000A2A9B3A929C0FC0184A995A9A6A9B7A95F
:102AD00023C0AE014F5F5F4F64E60E94E93481116D
:102AE00021C089819A81A0E0B0E029E0880F991F78
:102AF000AA1FBB1F2A95D1F70FC0F701408351834E
:102B000062837383F80144A755A766A777A791E06E
:102B1000958F08C08CEF06C0F70180839183A28354
:102B2000B38380E00F900F90DF91CF911F910F91B1
:102B3000FF90EF900895EF92FF920F931F93CF9322
:102B4000DF931F92CDB7DEB78C017B01AE014F5FE3
:102B50005F4F61E00E94DE34811113C09981F8015A
:102B6000E158FF4F908397FF04C091E0F7019083F5
:102B700002C0F7011082F7019081F801E05CFF4F7D
:102B800090830F90DF91CF911F910F91FF90EF9065
:102B900008958F929F92AF92BF92CF92DF92EF9261
:102BA000FF920F931F93CF93DF938C01EB01FC01F6
:102BB000808588836B5F7F4FC80160DD81114CC0C9
:102BC0001986BE01645F7F4FC80111DE811144C0C8
:102BD000BE01605F7F4FC8013BD781113DC06E01D0
:102BE000F0E2CF0ED11C48018CE1880E911C5E01F1
:102BF000E4E1AE0EB11CE12CF12CA601B701C80135
:102C000014DF811129C0F40181914F01F5018193F5
:102C10005F01FFEFEF1AFF0A84E0C80ED11CE6E067
:102C2000EE16F10451F7BE01685C7F4FC80183DFE7
:102C3000811112C0BE016F5F7F4FC801DF91CF913C
:102C40001F910F91FF90EF90DF90CF90BF90AF90CA
:102C50009F908F900C94A62ADF91CF911F910F9196
:102C6000FF90EF90DF90CF90BF90AF909F908F90AC
:102C70000895EF92FF920F931F93CF93DF93CDB7F9
:102C8000DEB7EA970FB6F894DEBF0FBECDBF8C015A
:102C900021E04EEF69E80E94B034811105C040E0A8
:102CA00068E8C8010E948F34F801E559FF4F10828F
:102CB00088EE93E0BF969183808380E991E032961D
:102CC0009183808385E89BE6A1E0B0E03296808323
:102CD0009183A283B38384EA90E7A9E0B0E0EA5449
:102CE000F10980839183A283B383F801148A158A42
:102CF000168A178ABE016F5F7F4FC8014ADFF82E20
:102D000081110AC0198289E3FE013196D801189613
:102D100001900D928A95E1F784E690E0F801EE5774
:102D2000FF4F9183808384E893E032969183808380
:102D300084EF91E032969183808380E09AE033962D
:102D40009183808381E07096808341E060E8C801D0
:102D50000E948F34E82E41E06FEFC8010E948F344B
:102D60008E29F82A40E060E0C8010E948F34F82ADA
:102D7000AE01465C5F4F61E9C8010E94DE34F82A6B
:102D80008AADF801E857FF4F808341E060E0C80159
:102D90000E948F34F82A40E06FEFC8010E948F3400
:102DA000F82A40E060E8C8010E948F348F29E12CA6
:102DB000F12C811158C041E0B701C8015BDDFFEF84
:102DC000EF1AFF0A96E0E916F10499F781114BC05A
:102DD000F801168E178E40E064E070E0C8014ADD0D
:102DE000811141C040E065E070E0C80143DD811120
:102DF0003AC020E030E042E150E060E070E0C8011D
:102E0000AEDD811130C020E030E440E050E061E010
:102E100070E0C801A4DD811126C020E030E043E26B
:102E200050E062E070E0C8019ADD81111CC020E032
:102E300030E0A90163E070E0C80191DD811113C0A9
:102E40008FEFF801E158FF4F80834FEF61E0C80139
:102E50000E948F3491E0F801E058FF4F9083811178
:102E600002C072971082EA960FB6F894DEBF0FBECA
:102E7000CDBFDF91CF911F910F91FF90EF900895FB
:102E800021E00C945E21D2C3E4C4CF92DF92EF9292
:102E9000FF920F931F93CF93DF931F92CDB7DEB7AF
:102EA0008C01FC01F08441E060E80E948F3441E035
:102EB0006FEFC8010E948F3440E060E0C8010E94BB
:102EC0008F34F801E857FF4F408161E9C8010E9443
:102ED0008F3441E060E0C8010E948F3440E06FEF22
:102EE000C8010E948F3440E060E8C8010E948F341E
:102EF000F1E0FF1691F1FF1628F083E0F8123AC0D6
:102F000044E02CC041E060E0C8010E948F3491E0B1
:102F10009983811132C0C12CD12C76019FEFC91A3F
:102F2000D90AE90AF90A998190FF10C081110EC0EF
:102F3000E8ECCE16D104E104F104F1F0AE014F5FEC
:102F40005F4F60E0C8010E94DE34E8CFF8ECCF1696
:102F5000D104E104F10489F40FC042E060E0C8014B
:102F60000E948F34811109C0F801E058FF4F94E0AE
:102F7000908303C088EF01C089EF0F90DF91CF915C
:102F80001F910F91FF90EF90DF90CF9008950F93D6
:102F90001F93CF93DF93EC01062F1885111115C0F5
:102FA00074DF002351F0811113C0CE010E94AE23C3
:102FB00081110EC0112319F006C0811109C0C0583B
:102FC000DF4F83E0888380E003C06623E1F3EDCF29
:102FD000DF91CF911F910F910895CF93DF93EC0173
:102FE00040E060E00E948F3441E06FEFCE010E942C
:102FF0008F3440E060E0CE010E948F3440E061E910
:10300000CE010E948F3441E060E0CE010E948F34F7
:1030100040E06FEFCE010E948F34811104C0C05890
:10302000DF4F93E09883DF91CF9108953F924F92C5
:103030005F926F927F928F929F92AF92BF92CF9248
:10304000DF92EF92FF920F931F93CF93DF93CDB751
:10305000DEB72D970FB6F894DEBF0FBECDBF5C0173
:103060004B010CE010E020E030E0AE014F5F5F4F1D
:1030700064E10E9477348111C0C02B8530E0322F8B
:1030800022278C85B901680F711D4F80512C542C5B
:1030900044248885480E511C612C712C39E0440C65
:1030A000551C661C771C3A95D1F7D40114964D92A5
:1030B0005D926D927C921797898590E0982F882772
:1030C0004A85840F911DA0E0B0E059E0880F991F58
:1030D000AA1FBB1F5A95D1F7F40180879187A28759
:1030E000B3870B8110E0102F00278C81080F111D72
:1030F000118B008B3980F501E656FF4F40815181DD
:10310000483EF3E05F07A1F1649FC001659F900D09
:10311000749F900D11248C509E4F68EE73E00E94B6
:103120006739F50184899589A689B789418944233E
:10313000F9F0089F6001099FD00C189FD00C112452
:10314000CD2CDD24E12CF12C4C145D046E047F04A5
:1031500069F0DB01A30192010E94CF392C193D09CE
:103160004E095F090E947B39B90102C060EE7AE81E
:10317000D4016D937C93FE013D966F017401A30110
:103180009201632DC5010E947631811136C09D8563
:10319000D40152969C93F501E557FF4F4081518130
:1031A00062817381F40144875587668777876080E1
:1031B0007180A281B381C480D580E680F78040858C
:1031C0005185628573852089318985010F5B1F4F89
:1031D000F801718260823296B183A0833296C082F8
:1031E000D182E282F3823496408351836283738377
:1031F000389631832083329690832D960FB6F894BB
:10320000DEBF0FBECDBFDF91CF911F910F91FF9019
:10321000EF90DF90CF90BF90AF909F908F907F9076
:103220006F905F904F903F900895EF92FF920F93B1
:103230001F93CF93DF931F92CDB7DEB77C0100E0E1
:1032400041E06BE0C7010E948F34182F40E06BE033
:10325000C7010E948F34182BAE014F5F5F4F63E1AF
:10326000C7010E94DE34812B0F5F9981977029F08E
:10327000033029F0882321F303C0033009F484EFDD
:103280000F90DF91CF911F910F91FF90EF900895D4
:10329000EF92FF921F93CF93DF93EC017B01142FEA
:1032A0001886642F74DE112389F081110FC0B701D5
:1032B000CE01BCDE81110AC040E050E0BA01CE016F
:1032C000DF91CF911F91FF90EF90AFCFDF91CF9122
:1032D0001F91FF90EF9008950F931F93CF93DF936B
:1032E000222321F0243019F544E001C040E0122FE0
:1032F000EC016AE00E948F3481111AC0002311F0A2
:1033000020E101C020E04FEE64E8CE010E94B0341D
:1033100081110EC0FE01E65AFF4F108340E050E0DD
:10332000BA01CE01DF91CF911F910F917ECF85EF32
:10333000DF91CF911F910F910895CF92DF92EF927D
:10334000FF920F931F93CF93DF93CDB7DEB7C65491
:10335000D1090FB6F894DEBF0FBECDBF7C01CE0100
:1033600001966C0189E3F60111928A95E9F724969A
:103370001FAE1EAE249727961FAE279726961FAE28
:10338000269722961CAE1DAE1EAE1FAE229761E0A0
:10339000C7010E945924F701E359FF4F20812230D1
:1033A00090F43197408150E060E070E0213031F4DA
:1033B000413251056105710530F40EC04D305105A3
:1033C0006105710548F0AE014B5B5F4FBE01625C69
:1033D0007F4FC701A1D702C0C7018CD58111BBC0E7
:1033E000F701E756FF4F8081811104C03297608159
:1033F000718102C067E171E0C7010E948A2B8111CF
:10340000AAC000E024E040E060E0C70165DF811170
:10341000A2C041E06FEFC7010E948F34182FAE01A8
:103420004E5B5F4F64E8C7010E94E934182B40E00F
:103430006FEFC7010E948F34812B09F08CC0F70118
:10344000EC5AFF4F24968EAD9FAD2497A0E0B0E0DC
:1034500024E0880F991FAA1FBB1F2A95D1F78083EC
:103460009183A283B383B601C70193DB811173C03B
:1034700089E3F601D701189601900D928A95E1F73C
:10348000AE014A5B5F4F61E0C7010E94DE348111EB
:1034900062C027968FAD2797F701E158FF4F8083D1
:1034A00040E060E0C7010E942012811154C040E05A
:1034B00062E0C7010E94201281114DC083E0F70134
:1034C000E058FF4F8083AE014C5B5F4F60E0C70167
:1034D0000E94B82981113FC025968FAD2597F7012D
:1034E000EC59FF4F8083AE014C5B5F4F61E0C70139
:1034F0000E94B82981112FC025968FAD2597F7011D
:10350000E15AFF4F8083AE01465C5F4F63E0C70125
:103510000E94DE2681111FC08AAD9BADACADBDAD52
:10352000F701E05AFF4F80839183A283B383AE01FA
:10353000465C5F4F64E0C7010E94DE2681110BC02C
:10354000F701E55AFF4F4AAD5BAD6CAD7DAD4083F1
:10355000518362837383CA5BDF4F0FB6F894DEBF7B
:103560000FBECDBFDF91CF911F910F91FF90EF90D4
:10357000DF90CF9008950F931F93CF93DF931F9207
:10358000CDB7DEB78B01AE014F5F5F4F63E10E94A5
:10359000DE349981492F477050E060E070E0F80117
:1035A0004083518362837383987109F08AEF0F908F
:1035B000DF91CF911F910F9108950F931F93CF9398
:1035C000DF9300D000D0CDB7DEB78B01FC01E65A07
:1035D000FF4F2081243071F4BE016F5F7F4FCBDF3E
:1035E00049815A816B817C814430510561057105A7
:1035F00081F40BC0AE014F5F5F4F64E10E94DE3487
:10360000811109C0998190FF04C091E0F801908375
:1036100002C0F80110820F900F900F900F90DF9171
:10362000CF911F910F91089565C476C62F923F9256
:103630004F925F926F927F928F929F92AF92BF92C2
:10364000CF92DF92EF92FF920F931F93CF93DF936E
:10365000CDB7DEB7A1970FB6F894DEBF0FBECDBFD2
:10366000411551056105710509F444C039A328A32A
:103670004C8F5D8F6E8F7F8F1C0160E04BD8811166
:10368000CFC040E063E070E0C101F4D88111C8C050
:1036900022E32C8BC12CD12C7601412C512C3201F0
:1036A00000E010E0A12CB12C41E0BE016F5F7F4F24
:1036B000C101EEDD811120C08B89811115C0898186
:1036C0009A81A80EB91E8D819E81AF81B885480E62
:1036D000591E6A1E7B1E8A88912C080D191D3FEF0A
:1036E000C31AD30AE30AF30A4C8941504C8B4111A7
:1036F000DBCF09C08CEF94C0CD28CE28CF2809F0AD
:103700008FC08AEF8DC0C114D104E104F104C9F364
:10371000C801A0E0B0E077276627A70196010E94C4
:103720007B39DA01C9019058AF4FBF4F9D01442743
:1037300055272C8B3D8B4E8B5F8B232B242B252BDE
:1037400009F459C08C8D9D8DAE8DBF8D9058AF4FB3
:10375000BF4F9D0144275527288F398F4A8F5B8F94
:10376000232B242B252B09F446C0C501A0E0B0E093
:1037700077276627A70196010E947B3949015A01E4
:103780008C8D9D8DAE8DBF8D281739074A075B073D
:1037900090F5C301B201A70196010E947B39CA01CD
:1037A000B9012C893D894E895F890E947B39690165
:1037B0007A01C501B401288D398D4A8D5B8D0E9437
:1037C0007B3980E090E0A1E0B0E04C015D01821A1D
:1037D000930AA40AB50AA5019401C701B6010E9483
:1037E00058396B017C0120E8D20EE11CF11C670105
:1037F000EE24FF2403C0C12CD12C7601A8A1B9A1CD
:10380000CD92DD92ED92FC92139761E0C1010E948E
:103810008A13811105C0B701A601C1010E94BE1320
:10382000A1960FB6F894DEBF0FBECDBFDF91CF914A
:103830001F910F91FF90EF90DF90CF90BF90AF90CE
:103840009F908F907F906F905F904F903F902F90C0
:1038500008952F923F924F925F926F927F928F9234
:103860009F92AF92BF92CF92DF92EF92FF920F930F
:103870001F93CF93DF93CDB7DEB764970FB6F8945D
:10388000DEBF0FBECDBF411551056105710509F4BD
:1038900044C019016A017B018C0140E050E0BA018B
:1038A0000E940812811185C0AE014C5E5F4F60E03E
:1038B000C8010E94B51281117CC040E060E0C801DF
:1038C0000E942012811175C040E063E070E0C801E1
:1038D0000E943A1481116DC042E3842E912C412C38
:1038E000512C3201A12CB12C41E0BE016F5F7F4F02
:1038F000C801CEDC811113C08B89811109C0898177
:103900009A81A80EB91E8FEF481A580A680A780AD9
:10391000E1E08E1A910841F709C08CEF4AC04528B2
:103920004628472809F045C08AEF43C04114510496
:1039300061047104C9F3F0E8DF0EE11CF11C6701BA
:10394000EE24FF24C501A0E0B0E077276627A3019D
:1039500092010E947B39DA01C9019058AF4FBF4FE5
:10396000CD01AA27BB27A7019601281B390B4A0BBB
:103970005B0BA8EEB3E00E94CF39F1016083718345
:1039800082839383F801608F718F828F938FF1010F
:103990004081518162817381C8010E9408128111A6
:1039A00008C09C89992329F041E060E0C8010E9489
:1039B000201264960FB6F894DEBF0FBECDBFDF9124
:1039C000CF911F910F91FF90EF90DF90CF90BF901C
:1039D000AF909F908F907F906F905F904F903F90AF
:1039E0002F900895CF93DF93EC01CB01BA01693199
:1039F0002CEC720727E0820791055CF4611520E347
:103A0000720728EF82072FEF920774F097FF05C027
:103A10000FC068E17CEC87E090E02AEF30E040E006
:103A200050E00E949D390DC060E070E388EF9FEF89
:103A30002AEF30E040E050E00E949D39305F4F4F68
:103A40005F4FA90168E2CE01DF91CF910C949A34C7
:103A50000F931F93CF93DF9300D0CDB7DEB78B01C9
:103A6000AE014F5F5F4F68E20E94E934811117C0D9
:103A700029813A813F70211598E0390708F03051CB
:103A80009AEF929FA001939F500D1124052E000CD8
:103A9000660B770BF80140835183628373830F9029
:103AA0000F90DF91CF911F910F9108953F924F9208
:103AB0005F926F927F928F929F92AF92BF92CF92BE
:103AC000DF92EF92FF920F931F93CF93DF93CDB7C7
:103AD000DEB728970FB6F894DEBF0FBECDBF9E832A
:103AE0008D83F886EF82CC24CA94DC2C7601AF81DA
:103AF000B885CD92DD92ED92FC9213974801590161
:103B000093E0B694A794979487949A95D1F7D901A6
:103B1000C80187709927AA27BB2789839A83AB831B
:103B2000BC832401350123E0440C551C661C771C22
:103B30002A95D1F775016401312CC416D506E60625
:103B4000F70608F040C031103EC0ED81FE81EC0D5B
:103B5000FD1D8081C814D904EA04FB0461F490E0DF
:103B6000098002C0959587950A94E2F709811A8128
:103B70002B813C8103C000E010E0980180FF0EC063
:103B8000040D151D261D371DAF81B8850D931D939E
:103B90002D933C931397332433940AC086950F5F7B
:103BA0001F4F2F4F3F4F083011052105310531F7C9
:103BB000BFEFCB1ADB0AEB0AFB0AE8E04E0E511C02
:103BC000611C711CBACF28960FB6F894DEBF0FBEE9
:103BD000CDBFDF91CF911F910F91FF90EF90DF90BC
:103BE000CF90BF90AF909F908F907F906F905F909D
:103BF0004F903F900895DC01CB0126E0B695A79544
:103C0000979587952A95D1F7BC01660F771F660FA8
:103C1000771FFB01E65FFD4F81E0408151816281AA
:103C20007381452B462B472B09F480E00895CF92F2
:103C3000DF92EF92FF920F931F9368017901E3E007
:103C4000F694E794D794C794EA95D1F707701127B3
:103C500022273327C416D506E606F70670F4FC01C2
:103C6000EC0DFD1D81E090E001C0880F0A95EAF798
:103C70009081892B808380E001C08EEC1F910F9191
:103C8000FF90EF90DF90CF9008950F931F93AB01BB
:103C900006E010E020E030E060EB0E945F341F910E
:103CA0000F9108950F931F93AB0106E010E020E001
:103CB00030E060EB0E9477341F910F9108952F92AE
:103CC0003F924F925F926F927F928F929F92AF92AC
:103CD000BF92CF92DF92EF92FF920F931F93CF93F9
:103CE000DF93CDB7DEB765970FB6F894DEBF0FBE92
:103CF000CDBF9A8B898B6B8B5D8B4C8B2F87388BD1
:103D0000170128012AA53BA54CA55DA52F8338875F
:103D100049875A871B861C861D861E862B853C85F7
:103D20004D855E858EA59FA5A8A9B9A92817390735
:103D30004A075B07B9F0AE01495F5F4F7A010AA5F8
:103D40001BA52CA53DA5B201A1018C899D89AEDEE4
:103D50006F80788489849A845FEF6516750685067E
:103D6000950611F480E028C0C401B3016A0D7B1DE3
:103D70008C1D9D1D40DF9B8989131DC0940183010B
:103D8000B201A1018F85988952DFA40193012F5FB1
:103D90003F4F4F4F5F4F2AA73BA74CA75DA78B858F
:103DA0009C85AD85BE850196A11DB11D8B879C8725
:103DB000AD87BE87B3CF8EECEAA9FBA92AA53BA5A8
:103DC0004CA55DA52083318342835383811123C099
:103DD0006F85788989899A8958DF81111CC0BE0155
:103DE0006F5F7F4F89899A895DDFAF85B889FE0152
:103DF000319640E050E0BA0142155305640575055F
:103E000051F02D919191291305C04F5F5F4F6F4F76
:103E10007F4FF2CF8EEC65960FB6F894DEBF0FBEE3
:103E2000CDBFDF91CF911F910F91FF90EF90DF9069
:103E3000CF90BF90AF909F908F907F906F905F904A
:103E40004F903F902F900895AF92BF92DF92EF92E4
:103E5000FF920F931F93CF93DF93CDB7DEB7639796
:103E60000FB6F894DEBF0FBECDBF8C015B017C01A5
:103E70008FE7E80EF11CF701D08040EC61E0C8014B
:103E80000E948F34811126C041E0BE016F5F7F4FD9
:103E9000C801FED981111EC041E06FEFC8010E9428
:103EA0008F34811117C0A50166EBC8010E94E93467
:103EB000811110C040E06FEFC8010E948F34811162
:103EC00009C04D2D61E0C8010E948F34811102C0EC
:103ED000F701D08263960FB6F894DEBF0FBECDBF58
:103EE000DF91CF911F910F91FF90EF90DF90BF90E6
:103EF000AF9008954F925F926F927F928F929F92B0
:103F0000AF92BF92CF92DF92EF92FF920F931F93E7
:103F1000CF93DF9300D000D0CDB7DEB74C01642E35
:103F2000152F062FB72E722E41E06FEF0E948F34AF
:103F300081111AC040E06FE4C4010E948F348111E6
:103F400013C04CE26EE4C4010E948F3481110CC096
:103F500040E06FEFC4010E948F34811105C044EB33
:103F600066EBC4010E948F34240123E7420E511CEA
:103F7000F2011082319610823196108231961082B1
:103F80003196108231961082C12CD12C7601772087
:103F9000A9F0C701B6016C547F4F8F4F9F4F2BDEA6
:103FA00081110CC02CE2C216D104E104F10431F0FD
:103FB000FFEFCF1ADF0AEF0AFF0AEBCFCE0101961F
:103FC0009F938F93BF920F931F936F92FF92EF92E5
:103FD000DF92CF9284EBA82EB12CC12CD12C16E00D
:103FE000E12EF12C00E010E09201A40147585F4F50
:103FF000672DC40164DE0FB6F894DEBF0FBECDBFDF
:10400000811109C0F401E259FF4F91E0908332978A
:104010006082319670820F900F900F900F90DF9119
:10402000CF911F910F91FF90EF90DF90CF90BF90B5
:10403000AF909F908F907F906F905F904F9008957A
:10404000CF93DF93EC01462F416060E00E948F34F4
:10405000811112C0CE0182D381110EC040E050E028
:10406000BA01CE01E2D8811107C040E060E0CE0184
:10407000DF91CF910C948F34DF91CF9108955F92AF
:104080006F927F928F929F92AF92BF92CF92DF9268
:10409000EF92FF920F931F93CF93DF931F92CDB7B1
:1040A000DEB74C01562EB42ED22E3801198241E0D3
:1040B0006FEF0E948F34182F40E060E0C4010E942F
:1040C0008F34182B40E06FEFC4010E948F34182BFF
:1040D000552091F0CC2031F0A3016BECC4010E947B
:1040E000DE34182BAA20C9F0AE014F5F5F4F6EEE91
:1040F000C4010E94DE3410C0CC2031F04B2D6BEC9B
:10410000C4010E948F34182BAA2039F02D2D40E8CD
:104110006EEEC4010E94B034182B41E06FEFC40171
:104120000E948F34182B41E060E0C4010E948F345C
:10413000182B40E06FEFC4010E948F3499819F7E5D
:10414000F7019083812B0F90DF91CF911F910F91F9
:10415000FF90EF90DF90CF90BF90AF909F908F90A7
:104160007F906F905F9008958F929F92AF92BF92D1
:10417000CF92DF92EF92FF920F931F93CF93DF9333
:104180001F92CDB7DEB74C018B01F42EB22E1982EF
:10419000222329F0FC01E158FF4FD08001C0D12C2F
:1041A00041E061E0C4010E948F34811114C060E4D9
:1041B000C40146DF81110FC091E0F9120CC0A12C9F
:1041C000CC24C394FE0131967F0120E040E061E001
:1041D000C40155DF02C0F801108281110DC0BB205F
:1041E00059F04D2D61E0C4010E948F34811104C04B
:1041F000F401E158FF4FD0820F90DF91CF911F91D2
:104200000F91FF90EF90DF90CF90BF90AF909F9075
:104210008F9008958F929F92AF92BF92CF92DF922C
:10422000EF92FF920F931F93CF93DF931F92CDB71F
:10423000DEB74C017B01142FB22E222329F0FC01A2
:10424000E158FF4FD08001C0D12C42E061E0C401B1
:104250000E948F34811113C060E0C401F1DE81112E
:104260000EC0113061F4AA24A394C12C8E010F5FFB
:104270001F4F20E040E061E0C40101DF02C0F70110
:10428000108281110DC0BB2059F04D2D61E0C40199
:104290000E948F34811104C0F401E158FF4FD08295
:1042A0000F90DF91CF911F910F91FF90EF90DF90D2
:1042B000CF90BF90AF909F908F900895CF92DF9254
:1042C000EF92FF920F931F93CF93DF93EC016A015C
:1042D000E22E8C0101581F4FF801F08020E04E2D96
:1042E00043DF811110C020E04E2DB601CE0192DFD8
:1042F000811109C04F2D61E0CE010E948F348111E0
:1043000002C0F801F082DF91CF911F910F91FF90D1
:10431000EF90DF90CF9008952F923F924F925F924F
:104320006F927F928F929F92AF92BF92CF92DF92C5
:10433000EF92FF920F931F93CF93DF93CDB7DEB72A
:10434000A8970FB6F894DEBF0FBECDBF4C017CA37B
:104350006BA35EA34DA31B861C861D861E861F8233
:10436000188619861A861A8A198AFC01E757FF4FA0
:10437000208131813C8B2B8B1C0133E7230E311CB8
:10438000D1011C922C01B4E74B0E511CF20110829A
:1043900031961082319610823196108231961082B9
:1043A00041E06FEF0E948F348111BFC140E06FE4A4
:1043B000C4010E948F348111B8C14CE26EE4C40183
:1043C0000E948F348111B1C140E06FEFC4010E949F
:1043D0008F348111AAC144EB66EBC4010E948F3473
:1043E0008111A3C140E060E8C4010E948F348111B3
:1043F0009CC120E0AE014F5E5F4FBE016E5E7F4FFD
:10440000C4015CDF811191C11B861C861D861E863E
:10441000940127583F4F3A8F298F3E013BE0630EAE
:10442000711C7F926F921F921F921F9283E08F9355
:104430001F921F921F921F9244EBA42EB12CC12CED
:10444000D12C16E0E12EF12C00E010E09101498D15
:104450005A8D60E0C40133DC0FB6F894DEBF0FBEA6
:10446000CDBF811162C1AB84BC84CD84DE84BE012A
:10447000615F7F4FC401E8DC811157C18F85988946
:10448000AB89BC89A817B90708F05DC0F10110829B
:10449000D2011C923296108231961082319610828F
:1044A00031961082C601B5016C547F4F8F4F9F4FDC
:1044B000A2DB882319F17F926F921F921F921F92A5
:1044C00083E08F93DF92CF92BF92AF9224EBA22E24
:1044D000B12CC12CD12C16E0E12EF12C00E010E023
:1044E0009101498D5A8D61E0C401E9DB0FB6F89462
:1044F000DEBF0FBECDBF811118C10CC0FCE2AF16EC
:10450000B104C104D104B8F6BFEFAB1ABB0ACB0AA1
:10451000DB0AC8CFAB84BC84CD84DE84BE01615F7E
:104520007F4FC40191DC811100C18F8598892B894F
:104530003C892817390780F421E093E0492E512C5B
:10454000612C712C0DC020E0412C512C32011D8AB0
:104550001E8A1F8A188E0CC020E0412C512C32017B
:1045600081E090E0A0E0B0E08D8B9E8BAF8BB88FA8
:104570008F859889AB89BC898A179B0708F0BBC0D7
:1045800026E0F101DE01119601900D922A95E1F7E6
:10459000AB89BC898A1B9B0B97FF03C091958195C2
:1045A00091099C01990F440B550B2F8F38A349A3F8
:1045B0005AA383E0482E512C612C712CA4014D5834
:1045C0005F4F58A74FA3CE0107967C019601850146
:1045D00046E050E060E070E0898D9A8D67DACF8028
:1045E000D884E984FA849FEFC916D906E906F9064A
:1045F00009F49AC0C701B6016C547F4F8F4F9F4F8B
:10460000FADA90E0A0E0B0E02D893E894F89588D1C
:1046100082179307A407B50709F06CC0D301C20144
:104620000196A11DB11D8B8F9C8FAD8FBE8F970101
:10463000860146E050E060E070E0C101F8DA8111E7
:1046400074C0560167019FEFA91AB90AC90AD90AAD
:10465000B101C4011ADB811168C0BE01615F7F4FE7
:10466000C401F2DB811161C08F859889AC01AB89EF
:10467000BC894A1B5B0B57FF03C0519541955109FB
:10468000052E000C660B770BEB89FC89E817F90700
:10469000D8F48F8D98A1A9A1BAA184179507A60770
:1046A000B70720F5BE016F5F7F4FC401EEDA96E0D9
:1046B000FE013196D401AD58BF4F01900D929A95ED
:1046C000E1F78823B9F031C086E0EFA1F8A5DE015B
:1046D000119601900D928A95E1F74B8C5C8C6D8C54
:1046E0007E8C4F8F58A369A37AA36DCF4B8C5C8CC3
:1046F0006D8C7E8C2D89ABA1BCA14D925D926D928B
:104700007C921397EDA1FEA12083F401E259FF4FA3
:1047100081E0808332978C918083ADA1BEA18C9182
:104720003196808380E001C08EECA8960FB6F89495
:10473000DEBF0FBECDBFDF91CF911F910F91FF90D4
:10474000EF90DF90CF90BF90AF909F908F907F9031
:104750006F905F904F903F902F900895EF92FF924F
:104760000F931F93CF93DF931F92CDB7DEB77C01DA
:10477000198200E010E0BE016F5F7F4FC7010E9409
:10478000DD1A81110DC09981913051F00F5F1F4FDB
:10479000083C110521F0C7010E94FF34ECCF89EFDE
:1047A0000F90DF91CF911F910F91FF90EF9008959F
:1047B000CF92DF92EF92FF920F931F938B019C0198
:1047C00040E050E060E070E4041715072607370763
:1047D00040F4A2E07695679557954795AA95D1F74D
:1047E000F3CF80E090E0DC014115510561057105D2
:1047F000F9F06C017D01C40ED51EE61EF71EB695BC
:10480000A795979587950C151D052E053F0540F03A
:104810000C191D092E093F09840F951FA61FB71FEC
:10482000E2E07695679557954795EA95D1F7DCCF05
:10483000BC01CD011F910F91FF90EF90DF90CF90C1
:104840000895CF92DF92EF92FF921F93CF93DF9361
:104850001F92CDB7DEB77C0140E063E80E948F3441
:10486000182F811117C0C12CD12CAE014F5F5F4FA3
:1048700063E8C7010E94DE34182F898181110AC0C4
:10488000111108C08FEFC81AD80A88ECC816D104D5
:1048900061F719EF41E063E8C7010E948F34812B73
:1048A0000F90DF91CF911F91FF90EF90DF90CF900D
:1048B00008952F923F924F925F926F927F928F92C4
:1048C0009F92AF92BF92CF92DF92EF92FF920F939F
:1048D0001F93CF93DF93CDB7DEB72E970FB6F89423
:1048E000DEBF0FBECDBF9C0125593F4F3D872C87B2
:1048F000F901C080F7E0CF1609F450C1E62E8C0113
:1049000041E060E80E948F34F82E41E06FEFC8016B
:104910000E948F34F82A40E060E0C8010E948F3482
:10492000F82A46E06FEFC8010E948F34F82AAE01E2
:10493000455F5F4F63E8C8010E94DE34F82A4B856B
:10494000446063E8C8010E948F34F82A47E06FEFA3
:10495000C8010E948F34F82A41E061E8C8010E9432
:104960008F34F82AC8010E94FF34F82A41E060E839
:10497000C8010E948F34F82A2E2D2170222EE0FECD
:1049800054C0C0FC52C04BE664E9C8010E948F3499
:10499000D82EC80156DF8D29F82AAE01495F5F4F36
:1049A00060E9C8010E94F434F82A8F819885A985AE
:1049B000BA85392F3F77332EEFE0B695A7959795B7
:1049C0008795EA95D1F7E82FE170DE2E44E264E99D
:1049D000C8010E948F34F82AC80133DFF82AAE01DB
:1049E000495F5F4F60E9C8010E94F434F82A8F8163
:1049F000988529853A8539832A839B838C8345E270
:104A000064E9C8010E948F34F82AC8011ADFF82A25
:104A1000AE01495F5F4F60E9C8010E94F434F82A93
:104A200089859A859D838E8302C0D12C312CFE2DE1
:104A3000F470FE87E2FE76C0C2FC74C043E764E90E
:104A4000C8010E948F34B82EC801FBDE8B29F82ADA
:104A5000AE01495F5F4F60E9C8010E94F434F82A53
:104A60008F809884A984BA84BA2CA92C982C882485
:104A7000240135016624772444E764E9C8010E94D3
:104A80008F34F82AC801DDDEF82AAE01495F5F4F96
:104A900060E9C8010E94F434F82A8F809884A984C0
:104AA000BA848B2C9924AA24BB2484289528A62870
:104AB000B72845E764E9C8010E948F34F82AC80185
:104AC000C0DEF82AAE01495F5F4F60E9C8010E946D
:104AD000F434F82A4F80588469847A84762C652CC3
:104AE000542C44246624772446E764E9C8010E94D4
:104AF0008F34F82AC801A5DEF82AAE01495F5F4F5E
:104B000060E9C8010E94F434F82A8F819885A9854C
:104B1000BA858B2F9927AA27BB27482A592A6A2AA0
:104B20007B2A06C0812C912C5401412C512C32013E
:104B300040E061E8C8010E948F34F82A46E06FEF38
:104B4000C8010E948F34F82AAE01455F5F4F63E8C9
:104B5000C8010E94DE34F82A4B854B7F63E8C80108
:104B60000E948F34F82A41E06FEFC8010E948F3411
:104B7000F82A41E060E0C8010E948F34F82A40E042
:104B80006FEFC8010E948F34F82A40E060E8C80146
:104B90000E948F34F82A09F057C002C0F12C54C08B
:104BA000222011F0C0FE04C02E85211113C048C080
:104BB000F801E459FF4F30823196D082DE01119620
:104BC0003C96C80181589F4F2D912193E817F90712
:104BD000D9F7EACFC2FC34C0F801E159FF4F39E000
:104BE000880C991CAA1CBB1C3A95D1F78082918233
:104BF000A282B3824114510461047104B1F0A30193
:104C00009201395141095109A8EEB3E00E94CF3910
:104C1000DC01CB0124E0B695A795979587952A9559
:104C2000D1F791958195910902C080E090E0092E1D
:104C3000000CAA0BBB0BF80184839583A683B78372
:104C4000EC28EC85FD85E0828F2D2E960FB6F8942A
:104C5000DEBF0FBECDBFDF91CF911F910F91FF90AF
:104C6000EF90DF90CF90BF90AF909F908F907F900C
:104C70006F905F904F903F902F900895CF92DF926A
:104C8000EF92FF926115710581059105D1F0DC016C
:104C9000CB010197A109B10920E030E06C017D0151
:104CA000CC24CD28CE28CF2839F0B695A795979556
:104CB00087952F5F3F4FF2CF322F2227820F931F0E
:104CC00002C080E090E0FF90EF90DF90CF900895D9
:104CD0008F929F92AF92BF92CF92DF92EF92FF920C
:104CE0004A015B01A22FB0E020E03FE24AE350E03E
:104CF0000E94CF396B017C0124EFC20E21E0D21E4D
:104D0000E11CF11CA8EEB3E0A50194010E94CF398B
:104D10004B015C01C701B60120ED37E040E050E0F7
:104D20000E947B39820E931EA41EB51EC701B601D8
:104D300028EE33E040E050E00E947B39C501B40129
:104D40000E947B39CA01B901FF90EF90DF90CF90AC
:104D5000BF90AF909F908F900895CF92DF92EF9287
:104D6000FF92CF93DF93EB01A42FB0E020E03FE26E
:104D70004AE350E00E94CF396C507E4F8F4F9F4FD7
:104D800028EEC22E23E0D22EE12CF12CA7019601B1
:104D90000E947B39DE010E94CF396C507E4F8F4FCD
:104DA0009F4FA70196010E947B39CA01B901DF918B
:104DB000CF91FF90EF90DF90CF900895AF92BF9288
:104DC000CF92DF92EF92FF921F93CF93DF93CDB7F5
:104DD000DEB72B970FB6F894DEBF0FBECDBF7C01B8
:104DE0005A011A86198618866330B8F4AE01455FF9
:104DF0005F4F60E00E941E12182F811108C0AE01A3
:104E0000465F5F4F66E4C7010E94DE34182F6A8553
:104E1000862F90E0A0E0B0E02BC0633081F5AE01BA
:104E2000455F5F4F60E00E941E12182F811188C0FD
:104E3000AE01455F5F4F60E0C7010E941E12182F50
:104E4000811108C0AE01485F5F4F61E5C7010E9454
:104E5000E934182F28853985B9017727CB01A0E0DF
:104E6000B0E004C0880F991FAA1FBB1F3A95D2F764
:104E7000BC01CD016F5F7F4F8F4F9F4F5DC064308E
:104E800009F062C0BE016F5F7F4F0E94D9128C8112
:104E9000882331F1AE01455F5F4F60E0C7010E949A
:104EA0001E12182F811141C0AE01485F5F4F61E5AE
:104EB000C7010E94E934182F28853985C90199272F
:104EC000A0E0B0E004C0880F991FAA1FBB1F3A954D
:104ED000D2F70196A11DB11D6C01111128C002C0AD
:104EE000C12CD12CAE01455F5F4F61E0C7010E942C
:104EF0001E12182F81111BC0AE014A5F5F4F61E780
:104F0000C7010E94E934182F2E813F81C9019927DA
:104F1000A0E0B0E004C0880F991FAA1FBB1F3A95FC
:104F2000D2F70196A11DB11D04C0C12CD12C80E087
:104F300090E0BC016C197D094B85C7010EDF08C0EC
:104F400060E070E0CB0104C060E070E0CB0110E0F5
:104F5000F5016083718382839383812F2B960FB633
:104F6000F894DEBF0FBECDBFDF91CF911F91FF90B0
:104F7000EF90DF90CF90BF90AF9008958F929F9267
:104F8000AF92BF92CF92DF92FF920F931F93CF9376
:104F9000DF93CDB7DEB728970FB6F894DEBF0FBE0C
:104FA000CDBF8C0149015A01633008F5AE01485F5D
:104FB0005F4F60E00E941E12F82E811197C0288575
:104FC000B501A401C80184DE4FEF613021E0720712
:104FD00008F4460FF801E85AFF4F842F90E09183C0
:104FE000808366E4C8010E948F34F82E7FC063304E
:104FF00021F5AE01485F5F4F60E00E941E12F82E5F
:105000002885B501A401C80163DE8827992736DE0B
:105010009F838E83F801E85AFF4F91838083F110BC
:1050200065C0AC0161E5C8010E949A34F82E811177
:105030005DC0F801E05AFF4F52C0643009F054C01F
:10504000BE016F5F7F4F0E94D9128C81882331F19E
:10505000AE01485F5F4F60E0C8010E941E12F82E4B
:10506000811144C0AE014A5F5F4F61E5C8010E94F3
:10507000E934F82E81113AC02E813F81C901992768
:10508000A0E0B0E004C0880F991FAA1FBB1F3A958B
:10509000D2F70196A11DB11D6C0102C0C12CD12C0B
:1050A000AE01485F5F4F61E0C8010E941E12F82EFA
:1050B00081111CC02885B501A401C80109DE6C0D51
:1050C0007D1D811D911DDADDAC0161E7C8010E94E3
:1050D0009A34F82E81110AC0F801E55AFF4F8082F8
:1050E0009182A282B38202C08CEFF82E8F2D289677
:1050F0000FB6F894DEBF0FBECDBFDF91CF911F91E9
:105100000F91FF90DF90CF90BF90AF909F908F90C6
:105110000895EF92FF920F931F93CF93DF93CDB734
:10512000DEB72D970FB6F894DEBF0FBECDBF1D863C
:1051300040FD10C1042F7C01611106C084EF840F73
:10514000873008F007C109C0613009F0A1C088EFBD
:10515000840F873008F0FEC01FC04C3011F448E1C6
:1051600003C04E3081F440E367E5C7010E948F34ED
:1051700048E066E5C7010E948F348111ECC0102F12
:10518000169511508DC0403111F440E4EDCF4231FD
:1051900009F07EC040E5E8CF4830F9F440E168E42A
:1051A000C7010E948F3448E067E4C7010E948F3432
:1051B000182F42E062E3C7010E948F34182B4CE0A5
:1051C00060E3C7010E948F34182B41E06FEFC701E5
:1051D0000E948F34182B40E34AC04A3099F448E2C9
:1051E00068E4C7010E948F3448E067E4C7010E9469
:1051F0008F34182F43E062E3C7010E948F34182BCD
:1052000049E029C04C3099F448E368E4C7010E94A2
:105210008F3448E067E4C7010E948F34182F43E0C1
:1052200062E3C7010E948F34182B48E014C04E304F
:1052300079F548E468E4C7010E948F3448E067E4E8
:10524000C7010E948F34182F43E062E3C7010E9418
:105250008F34182B47E060E3C7010E948F34182B6E
:1052600041E06FEFC7010E948F34182B40E260E3EA
:10527000C7010E948F34182B40E06FEFC7010E94D6
:105280008F34812B09F067C0102F1695115033C051
:10529000102F16951150662319F0613061F15AC034
:1052A000AE014B5F5F4F63E0C70188DD81111FC016
:1052B000AE014F5F5F4F62E0C70180DD811117C013
:1052C000412F60E5C7010E948F34811110C02D81EC
:1052D0003E814F81588563E0C70150DE811107C0D0
:1052E00029813A814B815C8162E0C70147DEF70189
:1052F000EC59FF4F19C0AE01475F5F4F64E0C70133
:105300005DDD81110EC0412F60E7C7010E948F341F
:10531000811107C029853A854B855C8564E0C7010A
:105320002DDEF701E15AFF4F0083811114C0F70110
:105330004185528563857485C7010E941A128111C7
:105340000AC021E040E0BE01635F7F4FC7010E94B9
:105350000A2101C08CEF2D960FB6F894DEBF0FBE68
:10536000CDBFDF91CF911F910F91FF90EF900895E6
:105370000F931F93CF93DF931F92CDB7DEB78A01B0
:10538000662339F0613099F4AE014F5F5F4F60E7FB
:1053900004C0AE014F5F5F4F60E50E94DE348111B3
:1053A00007C099819F5F990FF801908301C08CEF2E
:1053B0000F90DF91CF911F910F9108958F929F923F
:1053C000AF92BF92CF92DF92EF92FF920F931F9313
:1053D000CF93DF93CDB7DEB72D970FB6F894DEBF2E
:1053E0000FBECDBF00ED17E020E030E00A871B873D
:1053F0002C873D871E821F821886198640322EE434
:1054000052076105710508F48DC04A015B018C01EA
:10541000BE016F5F7F4F0E94D912811184C0750158
:10542000640186E3C81A8BE0D80AE108F108898193
:10543000811107C08A81811104C08B81882309F4FE
:1054400041C0AE01465F5F4F62E0C801B7DC811129
:105450006AC08981882391F08A859B85AC85BD854A
:10546000825B9D4FAF4FBF4F8C159D05AE05BF05AD
:1054700008F058C0C81AD90AEA0AFB0A8B818823A7
:1054800069F08A859B85AC85BD858E549D4FAF4F55
:10549000BF4F880F991FAA1FBB1F0BC08A8188238B
:1054A00089F08A859B85AC85BD858C569D4FAF4F15
:1054B000BF4F8C159D05AE05BF05A0F5C81AD90ACA
:1054C000EA0AFB0A8C818823C9F0AE014A5F5F4F6C
:1054D00063E0C80173DC4E815F81688579854C5635
:1054E0005D4F6F4F7F4F4C155D056E057F05D0F406
:1054F000811119C0C41AD50AE60AF70A8D818823DA
:1055000079F0A7019601265232404109510964E021
:10551000C80134DDF80181869286A386B48603C073
:1055200080E001C08CEF2D960FB6F894DEBF0FBE61
:10553000CDBFDF91CF911F910F91FF90EF90DF9042
:10554000CF90BF90AF909F908F9008958F929F9231
:10555000AF92BF92DF92EF92FF920F931F93CF9380
:10556000DF93CDB7DEB761970FB6F894DEBF0FBEFD
:10557000CDBF7C018B0180ED97E0A0E0B0E08A8791
:105580009B87AC87BD871E821F821886198686E39B
:105590009BE0A0E0B0E0FB0180839183A283B38312
:1055A000BE016F5F7F4FC7010E94D912D82E8111B3
:1055B0009EC08981811107C08A81811104C08B81BD
:1055C000882309F448C0AE01465F5F4F62E0C7011F
:1055D000F5DB81118BC089818823A9F08A859B85A1
:1055E000AC85BD85825B9D4FAF4FBF4FF8014081B9
:1055F000518162817381840F951FA61FB71F80831D
:105600009183A283B3838B81882369F08A859B85EC
:10561000AC85BD858E549D4FAF4FBF4F880F991FEE
:10562000AA1FBB1F0BC08A818823A9F08A859B858E
:10563000AC85BD858C569D4FAF4FBF4FF801408163
:10564000518162817381840F951FA61FB71F8083CC
:105650009183A283B3838C818823E9F0AE014A5FF2
:105660005F4F63E0C701AADB4E815F816885798562
:105670004C565D4F6F4F7F4FF80180809180A28024
:10568000B380480D591D6A1D7B1D40835183628381
:10569000738381112BC08D8181110BC0F801808132
:1056A0009181A281B381F70181879287A387B48713
:1056B0001EC0AE01425F5F4F64E0C7017FDB4E85D5
:1056C0005F85688979894A5D5D4F6F4F7F4FF8012B
:1056D00080809180A280B380480D591D6A1D7B1D7A
:1056E00040835183628373838823C1F2D82E8D2D2A
:1056F00061960FB6F894DEBF0FBECDBFDF91CF919C
:105700001F910F91FF90EF90DF90BF90AF909F900F
:105710008F9008952F923F924F925F926F927F9257
:105720008F929F92AF92BF92CF92DF92EF92FF92B1
:105730000F931F93CF93DF9300D000D000D0CDB74D
:10574000DEB75C016B0120E030E080E0AE014F5F2E
:105750005F4F4A01F501EC57FF4FFE83ED831501C2
:10576000F2E82F0E311C250146E8440E511C35018C
:1057700059E8650E711CF601E20FF31F008100234A
:1057800009F486C0811184C079019FEFE91AF90AF2
:105790000F3F09F057C0D601AE0DBF1D9C91790196
:1057A00042E0E40EF11C913041F1B0F09230C9F1C9
:1057B000933009F06AC0D601AE0DBF1D9C917901EE
:1057C00044E0E40EF11C4381292F30E0322F2227E0
:1057D000240F311DF30122C0D601AE0DBF1D9C91D7
:1057E000790154E0E50EF11C4381292F30E0322F7E
:1057F0002227240F311DF10111C0D601AE0DBF1DAE
:105800009C91790144E0E40EF11C4381292F30E0A2
:10581000322F2227240F311DED81FE813183208319
:1058200035C0D601AE0DBF1D9C91790144E0E40E58
:10583000F11C4381292F30E0322F2227240F311D04
:10584000F201ECCF053008F5F601EE0DFF1D608189
:105850007901F2E0EF0EF11CD601AE0DBF1DF4018F
:10586000802F90E09F0128193909281739071CF467
:105870002D912193F7CFE80EF91E10E020E030E0E3
:10588000A401C5010E945F3401C08CEF970173CF62
:1058900026960FB6F894DEBF0FBECDBFDF91CF9135
:1058A0001F910F91FF90EF90DF90CF90BF90AF903E
:1058B0009F908F907F906F905F904F903F902F9030
:1058C0000895BF92CF92DF92EF92FF920F931F93B2
:1058D000CF93DF931F92CDB7DEB77C016B018A01B6
:1058E000DA011D921D921D921C921397BE016F5FEB
:1058F0007F4F0E94B813B82E81111FC08981882361
:10590000E1F0F60180899189D70154962D913D915E
:105910004D915C915797DC010E94CF39DC01CB019E
:1059200080589F4FAF4FBF4F892F9A2FAB2FBB2768
:10593000F80180839183A283B3838B2D0F90DF9135
:10594000CF911F910F91FF90EF90DF90CF90BF907C
:105950000895CF92DF92EF92FF920F931F93CF9310
:10596000DF9300D000D0CDB7DEB78A01FB01C48041
:10597000D580E680F780FA01C082D182E282F3828C
:10598000AE014F5F5F4F9DDF811111C0F801C080F4
:10599000D180E280F38049815A816B817C814C0DFA
:1059A0005D1D6E1D7F1D40835183628373830F9045
:1059B0000F900F900F90DF91CF911F910F91FF905B
:1059C000EF90DF90CF9008954F925F926F927F9209
:1059D0008F929F92AF92BF92CF92DF92EF92FF92FF
:1059E0000F931F93CF93DF93CDB7DEB72C970FB6EE
:1059F000F894DEBF0FBECDBF4D835E836F83788783
:105A00002801390189869A86AB86BC86FC01E4565A
:105A1000FF4F80809180A12CB12C329660817181E2
:105A200082819381A50194010E945839DC01CB0148
:105A300080589F4FAF4FBF4F692F7A2F8B2F9927D9
:105A40000E94583969837A838B839C834114510463
:105A50006104710479F14D815E816F8178853AE04E
:105A6000440F551F661F771F3A95D1F7D301C20126
:105A7000B695A795979587958A019B01080F191FE1
:105A80002A1F3B1FC901B801A30192010E947B3963
:105A9000A3E0B0E00E94CF399B01AC010E945839CD
:105AA0004B015C0110E8910EA11CB11C4501AA2418
:105AB000BB2403C0812C912C5401A7019601698558
:105AC0007A858B859C850E945839DC01CB019058E2
:105AD000AF4FBF4FBD01882799279B01AC010E94A2
